{
  "contractName": "Election",
  "abi": [
    {
      "inputs": [],
      "stateMutability": "nonpayable",
      "type": "constructor"
    },
    {
      "inputs": [
        {
          "internalType": "uint256",
          "name": "",
          "type": "uint256"
        }
      ],
      "name": "candidates",
      "outputs": [
        {
          "internalType": "string",
          "name": "name",
          "type": "string"
        },
        {
          "internalType": "string",
          "name": "position",
          "type": "string"
        },
        {
          "internalType": "uint256",
          "name": "votecount",
          "type": "uint256"
        }
      ],
      "stateMutability": "view",
      "type": "function",
      "constant": true
    },
    {
      "inputs": [],
      "name": "owner",
      "outputs": [
        {
          "internalType": "address",
          "name": "",
          "type": "address"
        }
      ],
      "stateMutability": "view",
      "type": "function",
      "constant": true
    },
    {
      "inputs": [],
      "name": "totalVotes",
      "outputs": [
        {
          "internalType": "uint256",
          "name": "",
          "type": "uint256"
        }
      ],
      "stateMutability": "view",
      "type": "function",
      "constant": true
    },
    {
      "inputs": [
        {
          "internalType": "address",
          "name": "",
          "type": "address"
        }
      ],
      "name": "voters",
      "outputs": [
        {
          "internalType": "bool",
          "name": "authorized",
          "type": "bool"
        },
        {
          "internalType": "bool",
          "name": "voted",
          "type": "bool"
        },
        {
          "internalType": "uint256",
          "name": "vote",
          "type": "uint256"
        }
      ],
      "stateMutability": "view",
      "type": "function",
      "constant": true
    },
    {
      "inputs": [
        {
          "internalType": "string",
          "name": "_name",
          "type": "string"
        },
        {
          "internalType": "string",
          "name": "_position",
          "type": "string"
        }
      ],
      "name": "addCandidate",
      "outputs": [],
      "stateMutability": "nonpayable",
      "type": "function"
    },
    {
      "inputs": [
        {
          "internalType": "address",
          "name": "_person",
          "type": "address"
        }
      ],
      "name": "authorize",
      "outputs": [],
      "stateMutability": "nonpayable",
      "type": "function"
    },
    {
      "inputs": [],
      "name": "getNumCandidate",
      "outputs": [
        {
          "internalType": "uint256",
          "name": "",
          "type": "uint256"
        }
      ],
      "stateMutability": "view",
      "type": "function",
      "constant": true
    },
    {
      "inputs": [
        {
          "internalType": "uint256",
          "name": "i",
          "type": "uint256"
        }
      ],
      "name": "showVote",
      "outputs": [
        {
          "internalType": "uint256",
          "name": "",
          "type": "uint256"
        }
      ],
      "stateMutability": "view",
      "type": "function",
      "constant": true
    },
    {
      "inputs": [
        {
          "internalType": "uint256",
          "name": "_voteIndex",
          "type": "uint256"
        }
      ],
      "name": "vote",
      "outputs": [],
      "stateMutability": "nonpayable",
      "type": "function"
    },
    {
      "inputs": [],
      "name": "end",
      "outputs": [],
      "stateMutability": "nonpayable",
      "type": "function"
    },
    {
      "inputs": [],
      "name": "getMyStruct",
      "outputs": [
        {
          "components": [
            {
              "internalType": "string",
              "name": "name",
              "type": "string"
            },
            {
              "internalType": "string",
              "name": "position",
              "type": "string"
            },
            {
              "internalType": "uint256",
              "name": "votecount",
              "type": "uint256"
            }
          ],
          "internalType": "struct Election.Candidate[]",
          "name": "",
          "type": "tuple[]"
        }
      ],
      "stateMutability": "view",
      "type": "function",
      "constant": true
    },
    {
      "inputs": [
        {
          "internalType": "uint256",
          "name": "index",
          "type": "uint256"
        }
      ],
      "name": "getCandidate",
      "outputs": [
        {
          "internalType": "string",
          "name": "",
          "type": "string"
        },
        {
          "internalType": "string",
          "name": "",
          "type": "string"
        }
      ],
      "stateMutability": "view",
      "type": "function",
      "constant": true
    },
    {
      "inputs": [],
      "name": "getUser",
      "outputs": [
        {
          "internalType": "bool",
          "name": "",
          "type": "bool"
        },
        {
          "internalType": "bool",
          "name": "",
          "type": "bool"
        },
        {
          "internalType": "uint256",
          "name": "",
          "type": "uint256"
        }
      ],
      "stateMutability": "view",
      "type": "function",
      "constant": true
    },
    {
      "inputs": [
        {
          "internalType": "address",
          "name": "userAddress",
          "type": "address"
        }
      ],
      "name": "get",
      "outputs": [
        {
          "internalType": "bool",
          "name": "",
          "type": "bool"
        },
        {
          "internalType": "bool",
          "name": "",
          "type": "bool"
        },
        {
          "internalType": "uint256",
          "name": "",
          "type": "uint256"
        }
      ],
      "stateMutability": "view",
      "type": "function",
      "constant": true
    }
  ],
  "bytecode": "0x608060405234801561001057600080fd5b50336000806101000a81548173ffffffffffffffffffffffffffffffffffffffff021916908373ffffffffffffffffffffffffffffffffffffffff1602179055506114ff806100606000396000f3fe608060405234801561001057600080fd5b50600436106100ea5760003560e01c80638da5cb5b1161008c578063c2bc2efc11610066578063c2bc2efc14610264578063d02cf3cf14610296578063efbe1c1c146102b4578063ffe14d33146102be576100ea565b80638da5cb5b146101f8578063a3ec138d14610216578063b6a5d7de14610248576100ea565b806326541b56116100c857806326541b56146101595780633477ee2e1461017557806335b8e820146101a7578063832880e7146101d8576100ea565b80630121b93f146100ef5780630d15fd771461010b57806321cf13ac14610129575b600080fd5b61010960048036038101906101049190610f62565b6102dc565b005b6101136104b0565b6040516101209190611209565b60405180910390f35b610143600480360381019061013e9190610f62565b6104b6565b6040516101509190611209565b60405180910390f35b610173600480360381019061016e9190610ef6565b610510565b005b61018f600480360381019061018a9190610f62565b6105f9565b60405161019e939291906111c4565b60405180910390f35b6101c160048036038101906101bc9190610f62565b610743565b6040516101cf92919061118d565b60405180910390f35b6101e06108fd565b6040516101ef93929190611156565b60405180910390f35b610200610916565b60405161020d9190611119565b60405180910390f35b610230600480360381019061022b9190610ecd565b61093a565b60405161023f93929190611156565b60405180910390f35b610262600480360381019061025d9190610ecd565b61097e565b005b61027e60048036038101906102799190610ecd565b610a93565b60405161028d93929190611156565b60405180910390f35b61029e610b88565b6040516102ab9190611209565b60405180910390f35b6102bc610b95565b005b6102c6610c0b565b6040516102d39190611134565b60405180910390f35b600160003373ffffffffffffffffffffffffffffffffffffffff1673ffffffffffffffffffffffffffffffffffffffff16815260200190815260200160002060000160019054906101000a900460ff161561033657600080fd5b600160003373ffffffffffffffffffffffffffffffffffffffff1673ffffffffffffffffffffffffffffffffffffffff16815260200190815260200160002060000160009054906101000a900460ff1661038f57600080fd5b80600160003373ffffffffffffffffffffffffffffffffffffffff1673ffffffffffffffffffffffffffffffffffffffff1681526020019081526020016000206001018190555060018060003373ffffffffffffffffffffffffffffffffffffffff1673ffffffffffffffffffffffffffffffffffffffff16815260200190815260200160002060000160016101000a81548160ff02191690831515021790555060016002828154811061046c577f4e487b7100000000000000000000000000000000000000000000000000000000600052603260045260246000fd5b9060005260206000209060030201600201600082825461048c91906112eb565b925050819055506001600360008282546104a691906112eb565b9250508190555050565b60035481565b600080600283815481106104f3577f4e487b7100000000000000000000000000000000000000000000000000000000600052603260045260246000fd5b906000526020600020906003020160020154905080915050919050565b60008054906101000a900473ffffffffffffffffffffffffffffffffffffffff1673ffffffffffffffffffffffffffffffffffffffff163373ffffffffffffffffffffffffffffffffffffffff161461056857600080fd5b600260405180606001604052808481526020018381526020016000815250908060018154018082558091505060019003906000526020600020906003020160009091909190915060008201518160000190805190602001906105cb929190610d98565b5060208201518160010190805190602001906105e8929190610d98565b506040820151816002015550505050565b6002818154811061060957600080fd5b906000526020600020906003020160009150905080600001805461062c906113cb565b80601f0160208091040260200160405190810160405280929190818152602001828054610658906113cb565b80156106a55780601f1061067a576101008083540402835291602001916106a5565b820191906000526020600020905b81548152906001019060200180831161068857829003601f168201915b5050505050908060010180546106ba906113cb565b80601f01602080910402602001604051908101604052809291908181526020018280546106e6906113cb565b80156107335780601f1061070857610100808354040283529160200191610733565b820191906000526020600020905b81548152906001019060200180831161071657829003601f168201915b5050505050908060020154905083565b60608060028381548110610780577f4e487b7100000000000000000000000000000000000000000000000000000000600052603260045260246000fd5b9060005260206000209060030201600001600284815481106107cb577f4e487b7100000000000000000000000000000000000000000000000000000000600052603260045260246000fd5b90600052602060002090600302016001018180546107e8906113cb565b80601f0160208091040260200160405190810160405280929190818152602001828054610814906113cb565b80156108615780601f1061083657610100808354040283529160200191610861565b820191906000526020600020905b81548152906001019060200180831161084457829003601f168201915b50505050509150808054610874906113cb565b80601f01602080910402602001604051908101604052809291908181526020018280546108a0906113cb565b80156108ed5780601f106108c2576101008083540402835291602001916108ed565b820191906000526020600020905b8154815290600101906020018083116108d057829003601f168201915b5050505050905091509150915091565b600080600061090b33610a93565b925092509250909192565b60008054906101000a900473ffffffffffffffffffffffffffffffffffffffff1681565b60016020528060005260406000206000915090508060000160009054906101000a900460ff16908060000160019054906101000a900460ff16908060010154905083565b60008054906101000a900473ffffffffffffffffffffffffffffffffffffffff1673ffffffffffffffffffffffffffffffffffffffff163373ffffffffffffffffffffffffffffffffffffffff16146109d657600080fd5b6000600160008373ffffffffffffffffffffffffffffffffffffffff1673ffffffffffffffffffffffffffffffffffffffff16815260200190815260200160002060000160006101000a81548160ff021916908315150217905515610a905760018060008373ffffffffffffffffffffffffffffffffffffffff1673ffffffffffffffffffffffffffffffffffffffff16815260200190815260200160002060000160006101000a81548160ff0219169083151502179055505b50565b6000806000600160008573ffffffffffffffffffffffffffffffffffffffff1673ffffffffffffffffffffffffffffffffffffffff16815260200190815260200160002060000160009054906101000a900460ff16600160008673ffffffffffffffffffffffffffffffffffffffff1673ffffffffffffffffffffffffffffffffffffffff16815260200190815260200160002060000160019054906101000a900460ff16600160008773ffffffffffffffffffffffffffffffffffffffff1673ffffffffffffffffffffffffffffffffffffffff168152602001908152602001600020600101549250925092509193909250565b6000600280549050905090565b60008054906101000a900473ffffffffffffffffffffffffffffffffffffffff1673ffffffffffffffffffffffffffffffffffffffff163373ffffffffffffffffffffffffffffffffffffffff1614610bed57600080fd5b60003390508073ffffffffffffffffffffffffffffffffffffffff16ff5b60606002805480602002602001604051908101604052809291908181526020016000905b82821015610d8f5783829060005260206000209060030201604051806060016040529081600082018054610c62906113cb565b80601f0160208091040260200160405190810160405280929190818152602001828054610c8e906113cb565b8015610cdb5780601f10610cb057610100808354040283529160200191610cdb565b820191906000526020600020905b815481529060010190602001808311610cbe57829003601f168201915b50505050508152602001600182018054610cf4906113cb565b80601f0160208091040260200160405190810160405280929190818152602001828054610d20906113cb565b8015610d6d5780601f10610d4257610100808354040283529160200191610d6d565b820191906000526020600020905b815481529060010190602001808311610d5057829003601f168201915b5050505050815260200160028201548152505081526020019060010190610c2f565b50505050905090565b828054610da4906113cb565b90600052602060002090601f016020900481019282610dc65760008555610e0d565b82601f10610ddf57805160ff1916838001178555610e0d565b82800160010185558215610e0d579182015b82811115610e0c578251825591602001919060010190610df1565b5b509050610e1a9190610e1e565b5090565b5b80821115610e37576000816000905550600101610e1f565b5090565b6000610e4e610e4984611255565b611224565b905082815260208101848484011115610e6657600080fd5b610e71848285611389565b509392505050565b600081359050610e888161149b565b92915050565b600082601f830112610e9f57600080fd5b8135610eaf848260208601610e3b565b91505092915050565b600081359050610ec7816114b2565b92915050565b600060208284031215610edf57600080fd5b6000610eed84828501610e79565b91505092915050565b60008060408385031215610f0957600080fd5b600083013567ffffffffffffffff811115610f2357600080fd5b610f2f85828601610e8e565b925050602083013567ffffffffffffffff811115610f4c57600080fd5b610f5885828601610e8e565b9150509250929050565b600060208284031215610f7457600080fd5b6000610f8284828501610eb8565b91505092915050565b6000610f9783836110a4565b905092915050565b610fa881611341565b82525050565b6000610fb982611295565b610fc381856112b8565b935083602082028501610fd585611285565b8060005b858110156110115784840389528151610ff28582610f8b565b9450610ffd836112ab565b925060208a01995050600181019050610fd9565b50829750879550505050505092915050565b61102c81611353565b82525050565b600061103d826112a0565b61104781856112c9565b9350611057818560208601611398565b6110608161148a565b840191505092915050565b6000611076826112a0565b61108081856112da565b9350611090818560208601611398565b6110998161148a565b840191505092915050565b600060608301600083015184820360008601526110c18282611032565b915050602083015184820360208601526110db8282611032565b91505060408301516110f060408601826110fb565b508091505092915050565b6111048161137f565b82525050565b6111138161137f565b82525050565b600060208201905061112e6000830184610f9f565b92915050565b6000602082019050818103600083015261114e8184610fae565b905092915050565b600060608201905061116b6000830186611023565b6111786020830185611023565b611185604083018461110a565b949350505050565b600060408201905081810360008301526111a7818561106b565b905081810360208301526111bb818461106b565b90509392505050565b600060608201905081810360008301526111de818661106b565b905081810360208301526111f2818561106b565b9050611201604083018461110a565b949350505050565b600060208201905061121e600083018461110a565b92915050565b6000604051905081810181811067ffffffffffffffff8211171561124b5761124a61145b565b5b8060405250919050565b600067ffffffffffffffff8211156112705761126f61145b565b5b601f19601f8301169050602081019050919050565b6000819050602082019050919050565b600081519050919050565b600081519050919050565b6000602082019050919050565b600082825260208201905092915050565b600082825260208201905092915050565b600082825260208201905092915050565b60006112f68261137f565b91506113018361137f565b9250827fffffffffffffffffffffffffffffffffffffffffffffffffffffffffffffffff03821115611336576113356113fd565b5b828201905092915050565b600061134c8261135f565b9050919050565b60008115159050919050565b600073ffffffffffffffffffffffffffffffffffffffff82169050919050565b6000819050919050565b82818337600083830152505050565b60005b838110156113b657808201518184015260208101905061139b565b838111156113c5576000848401525b50505050565b600060028204905060018216806113e357607f821691505b602082108114156113f7576113f661142c565b5b50919050565b7f4e487b7100000000000000000000000000000000000000000000000000000000600052601160045260246000fd5b7f4e487b7100000000000000000000000000000000000000000000000000000000600052602260045260246000fd5b7f4e487b7100000000000000000000000000000000000000000000000000000000600052604160045260246000fd5b6000601f19601f8301169050919050565b6114a481611341565b81146114af57600080fd5b50565b6114bb8161137f565b81146114c657600080fd5b5056fea2646970667358221220b1366b850d9d6f421d46f046e9366245668ce4bbf381f47da2ea16efc873ff2f64736f6c63430008000033",
  "immutableReferences": {},
  "source": "// SPDX-License-Identifier: MIT\npragma solidity ^0.8.0;\n\n\ncontract Election{\n    \n    struct Candidate{\n        string name;\n        string position;\n        uint votecount;\n    }\n    \n    struct Voter{\n        bool authorized;\n        bool voted;\n        uint vote;\n    }\n    address public owner;\n   \n   \n     \n    mapping(address => Voter) public voters;\n    Candidate[] public candidates;\n    uint public totalVotes;\n    \n    modifier ownerOnly(){\n        require(msg.sender==owner);\n        _;\n    }\n    \n    constructor() {\n        owner=msg.sender;\n        \n    }\n    \n    function addCandidate(string memory _name,string memory _position) ownerOnly public{\n        candidates.push(Candidate(_name,_position,0));\n    }\n    \n\n    function authorize(address _person) ownerOnly public{\n        if(voters[_person].authorized=false) {\n            voters[_person].authorized=true;\n        }\n        \n    }\n    \n    function getNumCandidate() public view returns(uint) \n    { return candidates.length; }\n    \n    \n    \n     \n     function showVote(uint i) public view returns(uint){\n        uint count= uint(candidates[i].votecount);\n        return count;\n        \n     }\n \n    \n    function vote(uint _voteIndex)public{\n        require(!voters[msg.sender].voted);\n        require(voters[msg.sender].authorized);\n        \n        voters[msg.sender].vote= _voteIndex;\n        voters[msg.sender].voted=true;\n        \n        candidates[_voteIndex].votecount +=1;\n        totalVotes +=1;\n    }\n    \n    function end() ownerOnly public{\n        \n        address payable addr = payable (address(msg.sender));\n        selfdestruct(addr);\n    }\n    \n  \n    function getMyStruct() public view returns(Candidate[] memory) {\n     return candidates;\n    }\n    \n    function getCandidate(uint index)public view returns(string memory,string memory) {\n        return (candidates[index].name, candidates[index].position);\n    }\n    \n    \n    \n    \n    function getUser() public view returns(bool,bool,uint){\n        return get(msg.sender);\n    }\n    \n    function get(address userAddress)public view returns(bool,bool,uint)\n    {\n    return(\n     voters[userAddress].authorized,\n     voters[userAddress].voted,\n     voters[userAddress].vote);\n    }\n    \n    \n    \n   \n    }\n \n    \n",
  "sourcePath": "C:\\Users\\User\\newproj\\contracts\\Election.sol",
  "compiler": {
    "name": "solc",
    "version": "0.8.0+commit.c7dfd78e.Emscripten.clang"
  },
  "schemaVersion": "3.4.3",
  "updatedAt": "2021-09-07T14:05:35.023Z",
  "networkType": "ethereum",
  "devdoc": {
    "kind": "dev",
    "methods": {},
    "version": 1
  },
  "userdoc": {
    "kind": "user",
    "methods": {},
    "version": 1
  }
}